:020000040800F2
:10000000A006002089010008910100089301000862
:100010009501000897010008990100080000000000
:100020000000000000000000000000009B0100082C
:100030009D010008000000009F010008A1010008C8
:10004000A3010008A3010008A3010008A301000800
:10005000A3010008A3010008A3010008A3010008F0
:10006000A3010008A3010008A3010008A3010008E0
:10007000A3010008A3010008A3010008A3010008D0
:10008000A3010008A3010008A3010008A3010008C0
:10009000A3010008A3010008A3010008450200080D
:1000A000A3010008A3010008A3010008A3010008A0
:1000B000A3010008A3010008A3010008A301000890
:1000C000A3010008A3010008A3010008A301000880
:1000D000A3010008A3010008A3010008A301000870
:1000E000A3010008A3010008A301000800F002F822
:1000F00000F03AF80AA090E8000C82448344AAF188
:100100000107DA4501D100F02FF8AFF2090EBAE885
:100110000F0013F0010F18BFFB1A43F0010318473B
:10012000CC0E0000EC0E0000103A24BF78C878C155
:10013000FAD8520724BF30C830C144BF04680C60ED
:10014000704700000023002400250026103A28BF35
:1001500078C1FBD8520728BF30C148BF0B60704739
:100160001FB51FBD10B510BD00F031F81146FFF7E7
:10017000F7FF00F0B3FB00F04FF803B4FFF7F2FF16
:1001800003BC00F057F800000948804709480047C1
:10019000FEE7FEE7FEE7FEE7FEE7FEE7FEE7FEE737
:1001A000FEE7FEE704480549054A064B7047000094
:1001B0007D080008ED000008A0000020A006002037
:1001C000A0020020A00200207047704770477546CB
:1001D00000F02CF8AE4605006946534620F00700B3
:1001E000854618B020B5FFF7DDFFBDE820404FF091
:1001F00000064FF000074FF000084FF0000B21F011
:100200000701AC46ACE8C009ACE8C009ACE8C009DD
:10021000ACE8C0098D46704710B50446AFF30080C6
:100220002046BDE81040FFF7A8BF00000048704717
:100230004000002001491820ABBEFEE72600020066
:100240007047000010B533480088334908603348D0
:10025000007858BB2F481438008800F0010068B9B6
:1002600009684FF4B47201FB02F000F0EBFC0446A5
:100270002B4900F0D1FB2B49086042E001202749BF
:100280000870002023491439088023490968A1F522
:1002900080314FF4B47201FB02F000F0D3FC04464D
:1002A0001F4900F0B9FB1F4908602AE019481438BB
:1002B000008800F0010080B917490968A1F5803174
:1002C0004FF4B47201FB02F000F0BCFC0446144988
:1002D00000F0A2FB1349086013E000200F490870EA
:1002E0000C49143908800C4909684FF4B47201FBB9
:1002F00002F000F0A7FC0446094900F08DFB094913
:1003000008600948006840F0400007490860054857
:10031000006810BD240800400000002008000020F4
:100320000076E547040000201404014010B51F4882
:10033000006840F002001D4908601D48406840F414
:1003400080601B4948600846006840F480300860BF
:1003500000BF1748006800F400300028F9D01448A6
:10036000406840F48030124948600846406840F4D4
:10037000E01048600846006840F08070086000BFE8
:100380000B48006800F000700028F9D00848406869
:1003900040F002000649486000BF0548406800F090
:1003A00008000028F9D000F017FA10BD0020024024
:1003B000001002401C48006820F080601A49086064
:1003C0000846006840F0006008600846006820F0B9
:1003D000804008600846006840F00040086013480C
:1003E000008840F00300114908800846008840F466
:1003F000407008800D481038008840F002000B491A
:100400001039088009480830008840F480500749B6
:100410000831088005481838008840F00100034979
:100420001839088070470000000C0140180800408F
:1004300072B61D48C06840F480711B48C1601B48FB
:10044000006840F04000194908601848083000680A
:1004500040F04000154908310860081D006840F070
:100460004000091D0860172000280DDB00BF00BFF9
:1004700000F01F02012191404209920002F1E022A6
:10048000C2F8001100BF00BF00BF1720002807DB23
:1004900000F01F0201219140054A430942F8231050
:1004A00000BF62B670470000000001400004014038
:1004B00000E200E02DE9F84F04460E4617461D46BF
:1004C0003846316800F01CFD82465146606900F0F4
:1004D00019FC00905146606800F030FA6060D4E981
:1004E000010100F0DBFC02D2A068606006E0E16878
:1004F000606800F0D3FB01D2E06860606168206949
:1005000000F000FC81463168206800F0F9FC834669
:10051000A16900F0F7FB80463068206041460098F2
:1005200000F00CFA8346494600F008FA28600849B2
:10053000286800F0B3FB02D20648286006E00649AE
:10054000286800F0ABFC01D204482860BDE8F88FB1
:100550000000C0C13333BFC10000C0413333BF41CD
:100560000748084948610848086100208861074831
:1005700088600748C8600020486008607047000035
:10058000CDCC0C3F240000206F12033B0000204123
:10059000000020C12DE9FC5F044600250026182735
:1005A0004F48006840F440704D49086008460068B4
:1005B00040F4405008600846006820F040000860A1
:1005C0000846006840F0A00008604648006844F60D
:1005D0002061B0FBF1F0401E4906888500212068AB
:1005E00000F05CFC11D24049206800F057FB0CD2AF
:1005F00004203B490C310860384600F03BFB804644
:100600004146206800F008FA05460021206800F005
:1006100045FB12D23549206800F040FC0DD208207D
:100620002F490C310860384600F024FB80464146D3
:10063000206800F0F1F980F000450021206800F00A
:10064000ADFA06D126480C30006825490C31086007
:1006500000252448006844F62061B0FBF1FB5846B1
:1006600000F008FB4FF07E510190284600F0D4F9CD
:100670000090019900F046FB81461A48006844F654
:100680002061B0FBF1F0A0F1010B584600F0F2FA46
:100690008246494600F034FC80464FF07E5100F01F
:1006A0002FFC0646304600F0ADFA4FF08041088737
:1006B0000846008B40F4F04008830846008C40F068
:1006C000100008840846008840F0010008800448B3
:1006D0000C30006802490C310860BDE8FC9F000046
:1006E00000080140100000200000C0410000C0C10F
:1006F00010B500F001F810BD0CB50020019000907D
:100700003348006840F480303149086000BF304809
:10071000006800F4003000900198401C019000989F
:1007200018B90198B0F5A06FF1D12948006800F41C
:10073000003010B10120009001E0002000900098EE
:10074000012843D12348006840F010002149086087
:100750000846006820F0030008600846006840F082
:10076000020008601A484068194948600846406815
:1007700048600846406840F4806048600846406829
:1007800020F47C1048600846406840F4E810486057
:100790000846006840F08070086000BF0C480068A0
:1007A00000F000700028F9D00948406820F00300EC
:1007B000074948600846406840F00200486000BFB2
:1007C0000348406800F00C000828F9D10CBD000077
:1007D000001002400020024010B50021002000223D
:1007E000214B5B6803F00C0121B1042906D00829D4
:1007F00028D107E01D4B1E4C236027E01B4B1C4CEF
:10080000236023E0184B5B6803F47010164B5B68A1
:1008100003F48032022303EB904022B9154B43438B
:10082000134C23600DE0104B5B6803F4003323B1DD
:10083000104B43430E4C236003E00C4B43430C4CE2
:10084000236003E0094B0A4C236000BF00BF064B46
:100850005B68C3F30313084CE15C054B1B68CB409A
:10086000034C236010BD00000010024000127A000B
:100870001000002000093D001400002010B51348AE
:10088000006840F0010011490860084640681049BE
:1008900008400E494860084600680E4908400B4968
:1008A00008600846006820F4802008600846406818
:1008B00020F4FE0048604FF41F008860FFF718FF27
:1008C0004FF000600449086010BD000000100240B5
:1008D0000000FFF8FFFFF6FE08ED00E01048C069D9
:1008E000104908430E49C8610846806940F00D0070
:1008F0008861FFF735FEFFF719FDFFF799FDFFF758
:1009000059FD094800680849086008E0074B084A93
:1009100008490948FFF7CEFD0448FFF73BFEF5E71D
:1009200000100240050004000C0801400C000020EB
:1009300000007042040000202400002090EA010F13
:1009400048BF81F0004100F1E282421A3CBF801AA8
:1009500089184FEAD0524FF07F4C1CEA410FA2EBAE
:10096000D15318BF9CEA026F00F03B804FF0004C5F
:100970004CEA00204CEA012121FA03FC10EB0C0C9C
:100980001ED202F1FF325FEA1C2040EBC25038BF9A
:1009900070471CF07F0F4FEA400C18BFBCF17F4F2F
:1009A00038BF7047C3F12003994008BF20F0010011
:1009B000BCF17F4F38BF7047A0F1C04000F069BA6A
:1009C0004FEA3C00000A40EBC25028BF1CF0FF0F6A
:1009D0004FEA400CE6D018BFBCF17F4F38BF7047DC
:1009E000EAE79CEA026F05D010EA5C0F08BF00F04E
:1009F0000040704710B500F006FA00BF64FBBE3E31
:100A0000401058BFC0F14040491058BFC1F14041AB
:100A10008142EFF3008070474FF47F0C1CEAD01244
:100A20001EBF1CEAD11392EA0C0F93EA0C0F00F0E0
:100A3000858090EA010F48BF42F4807240F4000CB8
:100A400041F400002CF07F4120F07F4000B581424E
:100A5000A2EB03020FF2081CACEB504EC0F10000F9
:100A60009EF800E04FEA4E0E00FB0EFC38BF490036
:100A70004FEA2C1C02F5FA020CFB0EF34FEACE1ED5
:100A80004FEA112C4FEAC1210EEB635E42EB22428A
:100A90000EFB0CFC4FEA1C5300FB03114FEA112C18
:100AA0004FEA01310EFB0CFC4FEADC4C00FB0C1151
:100AB000C14228BF09184CEB03335DF804EB10EB7F
:100AC000410143EBC250B2F57C0F38BF704729D5C6
:100AD00012F0F00F1CBF00F1C04000F00040704762
:100AE000008182838485868788898B8C8D8E8F9107
:100AF0009293959697999A9C9D9FA0A2A3A5A7A82B
:100B0000AAACAEB0B2B3B5B7B9BCBEC0C2C5C7C956
:100B1000CCCED1D4D7D9DCDFE2E6E9ECF0F3F7FABA
:100B2000FE0000004FEA400C0CF1807CBCF17E4FCF
:100B300028BF7047B0F1C04000F0ABB990EA010F98
:100B40000CEAD11348BF42F48072624538BF634556
:100B500007D213F47F0F16D080EA010000F00040A6
:100B6000704710B500F04FF9097EFC3E00F005B863
:100B700080EA010000F00040704780EA010000F0C8
:100B8000004000F086B912F47F0F04BF024870479E
:100B900080EA010000F07DB90000C07F50EA010C3E
:100BA00000F113801CF5000F58BFBCF5000F01D4F5
:100BB0008842704707D710F5000F58BF11F5000F96
:100BC00015D488427047894270471CF5000F04D540
:100BD000BCF5000FF7D5814270474FF0807C1CEBCD
:100BE000400F38BF1CEB410F01D28142704710B556
:100BF00000F009F9922449004FF000504FF0805165
:100C0000FFF7FEBEC10DD1F19E0206DB4FEA0023C5
:100C100043F0004323FA02F07047004207D54FEA41
:100C20004001B1F1FE4F02D24FF00000704710B505
:100C300000F0E9F849922480002070476FEA200014
:100C40007047000010F0004148BF4042B0FA80F306
:100C500010FA03F2C3F19D030BD051EAC35101EB2B
:100C60001220530638BF704700F1010008BF20F082
:100C700001007047B0FA80F310FA03F2C3F19D034C
:100C80000AD0D90501EB1220530638BF704700F196
:100C9000010008BF20F001007047000050EA010C7D
:100CA00000F113801CF5000F58BFBCF5000F01D4F4
:100CB0008842704707D710F5000F58BF11F5000F95
:100CC00015D488427047894270471CF5000F04D53F
:100CD000BCF5000FF7D5814270474FF0807C1CEBCC
:100CE000400F38BF1CEB410F01D28142704710B555
:100CF00000F089F8922449004FF000504FF08051E5
:100D0000FFF77EBE4FF47F0C1CEAD0121EBF1CEA18
:100D1000D11392EA0C0F93EA0C0F00F0478090EA8F
:100D2000010F48BF42F480724FF0004C4CEA0020A3
:100D30004CEA012102EB0302A0FB0113A2F5000221
:100D4000002918BF43F001035B0028BF4FEA3303BB
:100D500042EB22425FEA132C4CEBC2502EBFBCEB9D
:100D6000436FB2F57C0F70474FEA036CBCF1004F44
:100D700008BF20F00100B2F57C0F38BF70470BD5DB
:100D800082F0FF0212F5803FC8BF704700F1C040FB
:100D9000D8BF00F00040704700F5000C5FEA4C0C33
:100DA00048BF7047B0F1C04000F073B890EA010F3F
:100DB0000CEAD11348BF42F48072624538BF6345E4
:100DC00004D280EA010000F00040704710B500F046
:100DD0001AF800BF8900013E00F007B800F009B81A
:100DE0005FEA410C5FEA1C6C08D080EA010000F069
:100DF00050B85FEA400C5FEA1C6CF6D14FF000403F
:100E0000A0F5800070470EF1020E2EF0030E5EF882
:100E1000044B244204D44FEA4102B2F17F4F11D86F
:100E20004FEA4003B3F17F4F0CD80ED14FEAD07C8C
:100E3000B2F17F4F0CEB4C0C0CF1020C08BF4CEBE9
:100E4000D17C04E04FF0080C01E04FEAD17C0CEBC0
:100E50004C0324FA03F404F00704B4F1040C06D2A2
:100E60000EEB840CBDE810404CF0010C6047DFE84D
:100E70000CF0070802024FF00040A0F5800010BD02
:100E80000846420018BFD2F1807288BF00F00040CF
:100E900010BDFF2141EAD050C005704751EA000C57
:100EA00000F113801CF5000F58BFBCF5000F01D4F2
:100EB0008142704707D711F5000F58BF10F5000F9A
:100EC00015D481427047894270471CF5000F04D544
:100ED000BCF5000FF7D5884270474FF0807C1CEBC3
:100EE000410F38BF1CEB400F01D28842704780EAA7
:100EF000010081EA000180EA0100FFF7F8BE00006E
:100F000090EA010F48BF81F000413FF51EAD421A43
:100F100004D882F00042A0EB020011444FEAD05204
:100F20004FF07F4C1CEA410FA2EBD15318BF9CEA53
:100F3000026F4AD04FF0004C4CEA00204CEA0121ED
:100F400021FA03FCB0EB0C0C0FD412F0FE0F36D0DC
:100F50005FEA4C001DD5001240EBC25038BF70470D
:100F60001CF03F0F18BF70470BE0A2F101025FEACF
:100F70001C2040EBC25038BF70471CF07F0F18BFD9
:100F80007047C3F12003994014BF401E20F00100B8
:100F9000704780084FEA122308BF7047B0FA80FC00
:100FA000A2EB0C02CCF1280C60FA0CF093EA122FA1
:100FB00004BF00EBC25070474FEAC3707047130A7A
:100FC0005FEADC1008BF7047F6E79CEA026F04D0C6
:100FD00010EA5C0F08BF0020704710B5FFF713FF41
:100FE00040DFF63E81F00040704700000C10000822
:100FF0000000002024000000280100083010000834
:10100000240000207C0600004401000800000000CD
:1010100000000000000000000000000000A24A04E0
:101020000000000000000000010203040607080998
:040000050800018965
:00000001FF
