:020000040800F2
:10000000780600208901000891010008930100088A
:100010009501000897010008990100080000000000
:100020000000000000000000000000009B0100082C
:100030009D010008000000009F010008A1010008C8
:10004000A3010008A3010008A3010008A301000800
:10005000A3010008A3010008A3010008A3010008F0
:10006000A3010008A3010008A3010008A3010008E0
:10007000A3010008A3010008A3010008A3010008D0
:10008000A3010008A3010008A3010008A3010008C0
:10009000A3010008A3010008A3010008A3010008B0
:1000A000A3010008A3010008A3010008A3010008A0
:1000B000A3010008A3010008A3010008A301000890
:1000C000A3010008A3010008A3010008A301000880
:1000D000A3010008A3010008A3010008A301000870
:1000E000A3010008A3010008A301000800F002F822
:1000F00000F03AF80AA090E8000C82448344AAF188
:100100000107DA4501D100F02FF8AFF2090EBAE885
:100110000F0013F0010F18BFFB1A43F0010318473B
:1001200080080000A0080000103A24BF78C878C1F9
:10013000FAD8520724BF30C830C144BF04680C60ED
:10014000704700000023002400250026103A28BF35
:1001500078C1FBD8520728BF30C148BF0B60704739
:100160001FB51FBD10B510BD00F031F81146FFF7E7
:10017000F7FF00F067F900F04FF803B4FFF7F2FF64
:1001800003BC00F057F800000948804709480047C1
:10019000FEE7FEE7FEE7FEE7FEE7FEE7FEE7FEE737
:1001A000FEE7FEE704480549054A064B7047000094
:1001B000E5030008ED000008780000207806002024
:1001C000780200207802002070477047704775461B
:1001D00000F02CF8AE4605006946534620F00700B3
:1001E000854618B020B5FFF7DDFFBDE820404FF091
:1001F00000064FF000074FF000084FF0000B21F011
:100200000701AC46ACE8C009ACE8C009ACE8C009DD
:10021000ACE8C0098D46704710B50446AFF30080C6
:100220002046BDE81040FFF7A8BF00000048704717
:100230001400002001491820ABBEFEE72600020092
:10024000704700002DE9F05F04462948006820F05F
:100250004000274908600846006840F0A000086098
:100260002448006844F62061B0FBF1F0401E4906C6
:1002700088852048006844F62061B0FBF1FA5046BA
:1002800000F038FA81461C49204600F051F98346B7
:10029000494600F043FA07461648006844F62061D4
:1002A000B0FBF1F0A0F10109484600F023FA8046C6
:1002B000394600F0FFFA06464FF07E5100F0FAFA98
:1002C0000546284600F0F6F94FF0804108870846B9
:1002D000008B40F4F04008830846008C40F010008A
:1002E00008840846008840F001000880BDE8F09FBF
:1002F00000080140000000200000C84210B500F0D6
:1003000001F810BD0CB50020019000903348006842
:1003100040F480303149086000BF3048006800F484
:10032000003000900198401C0190009818B9019885
:10033000B0F5A06FF1D12948006800F4003010B189
:100340000120009001E0002000900098012843D196
:100350002348006840F01000214908600846006802
:1003600020F0030008600846006840F002000860C2
:100370001A4840681949486008464068486008467D
:10038000406840F4806048600846406820F47C1073
:1003900048600846406840F4E81048600846006835
:1003A00040F08070086000BF0C48006800F00070EA
:1003B0000028F9D00948406820F003000749486048
:1003C0000846406840F00200486000BF03484068AB
:1003D00000F00C000828F9D10CBD0000001002400C
:1003E0000020024010B51348006840F00100114998
:1003F000086008464068104908400E4948600846B1
:1004000000680E4908400B4908600846006820F45F
:10041000802008600846406820F4FE0048604FF4E1
:100420001F008860FFF76AFF4FF000600449086012
:1004300010BD0000001002400000FFF8FFFFF6FEB4
:1004400008ED00E00748806940F00D00054988612B
:100450000846C06940F00100C8610348FFF7F2FE9A
:1004600000BFFEE700100240C3F59E4290EA010F74
:1004700048BF81F0004100F12482421A3CBF801A3B
:1004800089184FEAD0524FF07F4C1CEA410FA2EB83
:10049000D15318BF9CEA026F00F03B804FF0004C34
:1004A0004CEA00204CEA012121FA03FC10EB0C0C71
:1004B0001ED202F1FF325FEA1C2040EBC25038BF6F
:1004C00070471CF07F0F4FEA400C18BFBCF17F4F04
:1004D00038BF7047C3F12003994008BF20F00100E6
:1004E000BCF17F4F38BF7047A0F1C04000F0DDB9CC
:1004F0004FEA3C00000A40EBC25028BF1CF0FF0F3F
:100500004FEA400CE6D018BFBCF17F4F38BF7047B0
:10051000EAE79CEA026F05D010EA5C0F08BF00F022
:100520000040704710B500F07AF900BF64FBBE3E92
:100530004FF47F0C1CEAD0121EBF1CEAD11392EAC2
:100540000C0F93EA0C0F00F0858090EA010F48BF72
:1005500042F4807240F4000C41F400002CF07F4122
:1005600020F07F4000B58142A2EB03020FF2081C8D
:10057000ACEB504EC0F100009EF800E04FEA4E0E8A
:1005800000FB0EFC38BF49004FEA2C1C02F5FA02B2
:100590000CFB0EF34FEACE1E4FEA112C4FEAC1219D
:1005A0000EEB635E42EB22420EFB0CFC4FEA1C5347
:1005B00000FB03114FEA112C4FEA01310EFB0CFC3A
:1005C0004FEADC4C00FB0C11C14228BF09184CEB70
:1005D00003335DF804EB10EB410143EBC250B2F57D
:1005E0007C0F38BF704729D512F0F00F1CBF00F107
:1005F000C04000F000407047008182838485868778
:1006000088898B8C8D8E8F919293959697999A9CD1
:100610009D9FA0A2A3A5A7A8AAACAEB0B2B3B5B740
:10062000B9BCBEC0C2C5C7C9CCCED1D4D7D9DCDF16
:10063000E2E6E9ECF0F3F7FAFE0000004FEA400CC6
:100640000CF1807CBCF17E4F28BF7047B0F1C040F8
:1006500000F02BB990EA010F0CEAD11348BF42F425
:100660008072624538BF634507D213F47F0F16D0FE
:1006700080EA010000F00040704710B500F0CFF8AC
:10068000097EFC3E00F005B880EA010000F0004061
:10069000704780EA010000F0004000F006B912F453
:1006A0007F0F04BF0248704780EA010000F0FDB8E8
:1006B0000000C07FC10DD1F19E0206DB4FEA00238E
:1006C00043F0004323FA02F07047004207D54FEA97
:1006D0004001B1F1FE4F02D24FF00000704710B55B
:1006E00000F09DF849922480002070476FEA2000B6
:1006F00070470000B0FA80F310FA03F2C3F19D03D3
:100700000AD0D90501EB1220530638BF704700F11B
:10071000010008BF20F00100704700004FF47F0C7B
:100720001CEAD0121EBF1CEAD11392EA0C0F93EA06
:100730000C0F00F0478090EA010F48BF42F480722E
:100740004FF0004C4CEA00204CEA012102EB03027E
:10075000A0FB0113A2F50002002918BF43F001031A
:100760005B0028BF4FEA330342EB22425FEA132CBF
:100770004CEBC2502EBFBCEB436FB2F57C0F704701
:100780004FEA036CBCF1004F08BF20F00100B2F546
:100790007C0F38BF70470BD582F0FF0212F5803F07
:1007A000C8BF704700F1C040D8BF00F0004070479C
:1007B00000F5000C5FEA4C0C48BF7047B0F1C04038
:1007C00000F073B890EA010F0CEAD11348BF42F46D
:1007D0008072624538BF634504D280EA010000F0B0
:1007E0000040704710B500F01AF800BF8900013EC4
:1007F00000F007B800F009B85FEA410C5FEA1C6C32
:1008000008D080EA010000F050B85FEA400C5FEACF
:100810001C6CF6D14FF00040A0F5800070470EF13F
:10082000020E2EF0030E5EF8044B244204D44FEA6D
:100830004102B2F17F4F11D84FEA4003B3F17F4F2D
:100840000CD80ED14FEAD07CB2F17F4F0CEB4C0CA0
:100850000CF1020C08BF4CEBD17C04E04FF0080C0B
:1008600001E04FEAD17C0CEB4C0324FA03F404F0D2
:100870000704B4F1040C06D20EEB840CBDE8104062
:100880004CF0010C6047DFE80CF0070802024FF063
:100890000040A0F5800010BD0846420018BFD2F10C
:1008A000807288BF00F0004010BDFF2141EAD050A7
:1008B000C005704790EA010F48BF81F000413FF545
:1008C000DCAD421A04D882F00042A0EB02001144D1
:1008D0004FEAD0524FF07F4C1CEA410FA2EBD153AC
:1008E00018BF9CEA026F4AD04FF0004C4CEA00203F
:1008F0004CEA012121FA03FCB0EB0C0C0FD412F0EE
:10090000FE0F36D05FEA4C001DD5001240EBC250FE
:1009100038BF70471CF03F0F18BF70470BE0A2F1C3
:1009200001025FEA1C2040EBC25038BF70471CF048
:100930007F0F18BF7047C3F12003994014BF401EBA
:1009400020F00100704780084FEA122308BF70476B
:10095000B0FA80FCA2EB0C02CCF1280C60FA0CF08F
:1009600093EA122F04BF00EBC25070474FEAC370E6
:100970007047130A5FEADC1008BF7047F6E79CEA8D
:10098000026F04D010EA5C0F08BF0020704710B55A
:10099000FFF745FF40DFF63E81F000407047000062
:1009A000C009000800000020140000002801000811
:1009B000D409000814000020640600004401000867
:1009C00000A24A040000000000000000010203042D
:0409D0000607080905
:040000050800018965
:00000001FF
