:020000040800F2
:10000000C006002089010008910100089301000842
:100010009501000897010008990100080000000000
:100020000000000000000000000000009B0100082C
:100030009D010008000000009F010008A1010008C8
:10004000A3010008A3010008A3010008A301000800
:10005000A3010008A3010008A3010008A3010008F0
:10006000A3010008A3010008A3010008A3010008E0
:10007000A3010008A3010008A3010008A3010008D0
:10008000A3010008A3010008A3010008A3010008C0
:10009000A3010008A3010008A3010008450200080D
:1000A000A3010008A3010008A3010008A3010008A0
:1000B000A3010008A3010008A3010008A301000890
:1000C000A3010008A3010008A3010008A301000880
:1000D000A3010008A3010008A3010008A301000870
:1000E000A3010008A3010008A301000800F002F822
:1000F00000F03AF80AA090E8000C82448344AAF188
:100100000107DA4501D100F02FF8AFF2090EBAE885
:100110000F0013F0010F18BFFB1A43F0010318473B
:10012000E815000008160000103A24BF78C878C10E
:10013000FAD8520724BF30C830C144BF04680C60ED
:10014000704700000023002400250026103A28BF35
:1001500078C1FBD8520728BF30C148BF0B60704739
:100160001FB51FBD10B510BD00F031F81146FFF7E7
:10017000F7FF00F0C5FB00F04FF803B4FFF7F2FF04
:1001800003BC00F057F800000948804709480047C1
:10019000FEE7FEE7FEE7FEE7FEE7FEE7FEE7FEE737
:1001A000FEE7FEE704480549054A064B7047000094
:1001B000A1080008ED000008C0000020C0060020D3
:1001C000C0020020C002002070477047704775468B
:1001D00000F02CF8AE4605006946534620F00700B3
:1001E000854618B020B5FFF7DDFFBDE820404FF091
:1001F00000064FF000074FF000084FF0000B21F011
:100200000701AC46ACE8C009ACE8C009ACE8C009DD
:10021000ACE8C0098D46704710B50446AFF30080C6
:100220002046BDE81040FFF7A8BF00000048704717
:100230006000002001491820ABBEFEE72600020046
:100240007047000010B533480088334908603348D0
:10025000007858BB2F481438008800F0010068B9B6
:1002600009684FF4B47201FB02F001F079F804461A
:100270002B4900F05FFF2B49086042E0012027492D
:100280000870002023491439088023490968A1F522
:1002900080314FF4B47201FB02F001F061F80446C2
:1002A0001F4900F047FF1F4908602AE01948143829
:1002B000008800F0010080B917490968A1F5803174
:1002C0004FF4B47201FB02F001F04AF804461449FD
:1002D00000F030FF1349086013E000200F49087058
:1002E0000C49143908800C4909684FF4B47201FBB9
:1002F00002F001F035F80446094900F01BFF0949F6
:1003000008600948006840F0400007490860054857
:10031000006810BD240800400000002008000020F4
:100320000076E547040000201404014010B51F4882
:10033000006840F002001D4908601D48406840F414
:1003400080601B4948600846006840F480300860BF
:1003500000BF1748006800F400300028F9D01448A6
:10036000406840F48030124948600846406840F4D4
:10037000E01048600846006840F08070086000BFE8
:100380000B48006800F000700028F9D00848406869
:1003900040F002000649486000BF0548406800F090
:1003A00008000028F9D000F029FA10BD0020024012
:1003B000001002401C48006820F080601A49086064
:1003C0000846006840F0006008600846006820F0B9
:1003D000804008600846006840F00040086013480C
:1003E000008840F00300114908800846008840F466
:1003F000407008800D481038008840F002000B491A
:100400001039088009480830008840F480500749B6
:100410000831088005481838008840F00100034979
:100420001839088070470000000C0140180800408F
:1004300072B61D48C06840F480711B48C1601B48FB
:10044000006840F04000194908601848083000680A
:1004500040F04000154908310860081D006840F070
:100460004000091D0860172000280DDB00BF00BFF9
:1004700000F01F02012191404209920002F1E022A6
:10048000C2F8001100BF00BF00BF1720002807DB23
:1004900000F01F0201219140054A430942F8231050
:1004A00000BF62B670470000000001400004014038
:1004B00000E200E02DE9F04F89B004460D461646F3
:1004C0002946304601F0AAF80790079800F098FDF9
:1004D000CDE90201D4E90A733A4600F067FBCDE9A1
:1004E000040100F041FA0690079800F089FDCDE97B
:1004F0000401D4E902733A4600F068FAC4E9020143
:10050000D4E904733A46D4E902B1584600F04CFCF1
:1005100004D2D4E90401C4E902010CE0D4E9067371
:100520003A46D4E902B1584600F004FB03D2D4E9BC
:100530000601C4E90201D4E902733A46D4E908B1DC
:10054000584600F033FBCDE9040100F00DFA824675
:10055000284600F055FDCDE90001D4E900733A4684
:1005600000F058FCCDE90201D4E90C733A4600F0E2
:100570001DFBCDE9040100F0F7F98146284600F0A3
:100580003FFDC4E900014946069800F065FD0746B5
:10059000514600F061FD09B0BDE8F08F2DE9FC5F28
:1005A00004460025002618275549204600F004FF80
:1005B00001D2534C05E05349204600F0FDFF00D224
:1005C000504C5148006840F440704F49086008465C
:1005D000006840F4405008600846006820F0400081
:1005E00008600846006840F0A000086047480068BE
:1005F0004749B0FBF1F0401E49068885002120469E
:1006000000F0DAFF15D23F49204600F0D5FE10D2A7
:100610003D480C30006840F001003B490C31086057
:10062000384600F0B5FE80464146204600F082FD87
:1006300005460021204600F0BFFE16D23049204674
:1006400000F0BAFF11D230480C30006840F00200D0
:100650002D490C310860384600F09AFE804641462C
:10066000204600F067FD80F000450021204600F0A4
:1006700023FE06D124480C30006823490C31086061
:100680000025224800682249B0FBF1F0009000F0FC
:100690007FFE83464FF07E51284600F04BFD5946C1
:1006A000019000F0BDFE8146184800681849B0FB73
:1006B000F1F0A0F1010B584600F06AFE824649466F
:1006C00000F0ACFF80464FF07E5100F0A7FF0646D9
:1006D000304600F025FE4FF0804108870846008B29
:1006E00040F4F04008830846008C40F01000088475
:1006F0000846008840F001000880BDE8FC9F00002B
:100700000000C0C10000C0410008014010000020EE
:1007100020A1070010B500F001F810BD0CB50020B5
:10072000019000903348006840F4803031490860FF
:1007300000BF3048006800F4003000900198401C71
:100740000190009818B90198B0F5A06FF1D129482F
:10075000006800F4003010B10120009001E000209A
:1007600000900098012843D12348006840F0100011
:10077000214908600846006820F003000860084628
:10078000006840F0020008601A4840681949486053
:100790000846406848600846406840F48060486009
:1007A0000846406820F47C1048600846406840F4E1
:1007B000E81048600846006840F08070086000BF9C
:1007C0000C48006800F000700028F9D00948406823
:1007D00020F00300074948600846406840F00200E6
:1007E000486000BF0348406800F00C000828F9D1B9
:1007F0000CBD0000001002400020024010B5002196
:1008000000200022214B5B6803F00C0121B1042978
:1008100006D0082928D107E01D4B1E4C236027E095
:100820001B4B1C4C236023E0184B5B6803F47010D7
:10083000164B5B6803F48032022303EB904022B92D
:10084000154B4343134C23600DE0104B5B6803F4DE
:10085000003323B1104B43430E4C236003E00C4B99
:1008600043430C4C236003E0094B0A4C236000BF58
:1008700000BF064B5B68C3F30313084CE15C054BF8
:100880001B68CB40034C236010BD000000100240E9
:1008900000127A001000002000093D001400002022
:1008A00010B51348006840F001001149086008467F
:1008B0004068104908400E494860084600680E49E3
:1008C00008400B4908600846006820F48020086052
:1008D0000846406820F4FE0048604FF41F0088601E
:1008E000FFF718FF4FF000600449086010BD0000DA
:1008F000001002400000FFF8FFFFF6FE08ED00E0E8
:100900001448C06940F480201249C86108468069D3
:1009100040F00D0088610846C06940F00100C861E0
:100920000846C06940F00400C861FFF7FFFCFFF70C
:100930007FFDFFF73FFD0BE0074A084801680848C4
:10094000FFF7B8FD0749086008460068FFF726FE74
:10095000F2E70000001002400000B4420400002052
:10096000280000200C00002021F00042A2F160527B
:10097000B2F5801F01F0004328BFD2F17F6C0BD984
:100980005FEA001C43EAC20242EB507018BF704796
:1009900028BF20F001007047B2F5801FBCBF184689
:1009A00070474FEA410C1CF5001F02D2084600F0C8
:1009B000FEBD70B500F0A4F900000089FFF7F6BF96
:1009C0004FF00040A0F580007047000010B591EA9C
:1009D000030F48BF83F0004300F13082841A71EBAB
:1009E000030C05D2121943EB0C03001B61EB0C0145
:1009F000DFF824E14FEA1154A4EB135C1EEA430F25
:100A000018BF9EEA445F73D023EA0E03DCF1200E88
:100A100021EA045143F4801332D322FA0CFE10EB86
:100A20000E0023FA0CFE41EB0E01CCF1200E03FA6E
:100A30000EFE10EB0E0051F10001B1F5801FCCF15C
:100A4000200E32D201EB045112FA0EF2BDE8104032
:100A500058BF7047401C38BF5FEA420218BF70475A
:100A6000002814BF20F0010041F100014FEA4103CA
:100A700013F5001F38BF7047A1F1C04100F08EB9D7
:100A8000012A43EB0302ACF1200CDCF11F0E32BF54
:100A90004FF0000E23FA0CF310EB030041EB04516E
:100AA000B4EB115FD0D0A1EB045101F580114908DE
:100AB0005FEA300001EB04510ED350F1000038BF63
:100AC00012FA0EFE08D1BDE81040C9E7401C38BF3D
:100AD0005FEA4202CAD1C3E7BDE810404FEA4103D2
:100AE00013F5001F38BF7047A1F1C04100F056B99F
:100AF0009EEA445F08D011EA5E0FBDE8104004BFD3
:100B000001F0004100207047BDE8104070B500F0D2
:100B1000F7F800BF64FBBE3E0000E0FF491058BF7D
:100B2000C1F140415B1058BFC3F140438B42EFF32A
:100B30000080704751EA030C17D41CF5801F58BF82
:100B4000BCF5801F00F10680994218BF704708BFAE
:100B50009042704707D711F5801F58BF13F5801FCB
:100B600019D499427047894270471CF5801F08D5F7
:100B7000BCF5801FF7D58B4218BF704708BF824273
:100B800070474FF4001C1CEB410F38BF1CEB430FA8
:100B900001D28B42704770B500F0B2F89224490040
:100BA0004FF000514FF08053FFF7B8BFDFF848C156
:100BB00070B51CEA111E1EBF1CEA13159EEA0C0F2D
:100BC00095EA0C0F00F06F8081EA030423EA4C13CE
:100BD0004EEAD47E21EA4C1141F4801143F4801393
:100BE000AE44A1FB024CA0FB0365AEF17F7E36193B
:100BF00055EB0C05A1FB034C4CF10003A0FB021CC0
:100C000016EB0C06654153F10003094218BF46F08C
:100C1000010613F4007F0BD14FEA03314FEA053090
:100C2000340341EA155140EA16506FF003020AE01E
:100C30004FEAC3214FEAC520F40241EA555140EA88
:100C400056506FF0020202EB2E4201EB025585EA8C
:100C5000CE710AD05FEA440C18BF24F0004450F172
:100C6000000041F1000120EAD47040F2FE7C6245B0
:100C700000D270BDA84214BF4FF080444FF04044F2
:100C8000002E08BF0024BEF1806FA8BFA1F1C041B3
:100C9000BDE8704080F282804FF0000001F1C04159
:100CA00001F0004170479EEA0C0F0CEA131518BFC3
:100CB00095EA0C0F06D04FF0000081EA030E0EF00B
:100CC000004170BD00F01CF88900013E00F007B83B
:100CD00000F009B84FEA430C5FEA5C5C08D081EA97
:100CE000030100F05BB84FEA410C5FEA5C5CF6D1AF
:100CF0004FF00000014970470000FF070000F87F37
:100D00000EF1020E2EF0030E5EF8046B364205D48F
:100D1000012A43EB030515F5001F12D8012841EB0A
:100D2000010C1CF5001F0CD80ED14FEAD17C15F533
:100D3000001F0CEB4C0C0CF1020C08BF4CEBD37CED
:100D400004E04FF0080C01E04FEAD37C0CEB4C05BB
:100D500026FA05F606F00706B6F1040C06D20EEBED
:100D6000860CBDE870404CF0010C6047DFE80CF0E9
:100D7000090B02024FF000414FF00000A1F50021E5
:100D800070BD19461046012851EB010418BFD4F577
:100D9000001484BF002001F0004170BD0808A0F5D8
:100DA00000114FEA3101704753EA010C17D41CF5CA
:100DB000801F58BFBCF5801F00F106808B4218BF12
:100DC000704708BF8242704707D713F5801F58BF8E
:100DD00011F5801F19D48B4270479B4270471CF558
:100DE000801F08D5BCF5801FF7D5994218BF704702
:100DF00008BF904270474FF4001C1CEB430F38BFF4
:100E00001CEB410F01D2994270470FB40CBC03BCDC
:100E1000FFF7C1BE91EA030F10B581F000413FF525
:100E2000DDAD83F0004300F009B8000010B591EA91
:100E3000030F48BF83F000433FF5D0AD841A71EB38
:100E4000030C07D212198CF0004C43EB0C03001B6F
:100E500061EB0C01DFF8A4E14FEA1154A4EB135C41
:100E60001EEA430F18BF9EEA445F00F0B08023EAF9
:100E70006E03524221EA0451C3EB6E0338BF5B1E7E
:100E8000DCF1200E25D322FA0CFE10EB0E0043FA03
:100E90000CFE41EB0E01CCF1200E03FA0EFE10EB1E
:100EA0000E0051F10001CCF1200E29D412FA0EF2FD
:100EB00001EB0451BDE8104058BF7047401C1CBFF7
:100EC000B2F1004F704700280CBF491C20F0010010
:100ED000704712EB020E43EB030218BF4FF0010EF6
:100EE0004EEA4202ACF1200CDCF11E0E54D943FA5A
:100EF0000CFE10EB0E0051F1FF31CCF11E0ED5D5DA
:100F00000EF1010E12FA0EFE404141EB010101EB20
:100F1000445C5FEA5C5C10D910EBDE7001EB0451BD
:100F200038BFBEF1004FBDE8104018BF7047002821
:100F30000CBF491C20F00100704730D24FEAD42C7E
:100F400011F5001124F400641BD0B1FA81F20B3AC0
:100F5000A41AA41ED2F12003914030FA03F31943DE
:100F6000904001EBCC71002C01EB0451BDE8104026
:100F7000A8BF704701F1C0414FF0000001F00041EF
:100F80007047B0FA80F310FA03F100D110BDE41AF3
:100F9000173C4805C90AE4E701EB045110BD4910AC
:100FA00001EB0451BDE810404FEA300002E04FF081
:100FB000000170474A0008BF0042F8D0B2F5001F98
:100FC00028BF704701F000414FF0000070479EEAD3
:100FD000445F07D011EA5E0FBDE8104004BF002156
:100FE00000207047BDE8104070B5FFF789FE00BFD4
:100FF00040DFF63E83F00041104670470000E0FFFE
:1010000043004FEAD30C4FEA3C0C43401FBF40075C
:101010000CF1605113F0FE4F70471CF0006F03D1CC
:1010200000200CF0004170470CF0004343EA507080
:1010300010B540EACC0000F074FA00BF0000009246
:101040004FEA0001FFF7AABE4FF000414FF0000049
:10105000A1F500217047000090EA010F48BF81F020
:10106000004100F1E282421A3CBF801A89184FEA1F
:10107000D0524FF07F4C1CEA410FA2EBD15318BF66
:101080009CEA026F00F03B804FF0004C4CEA0020DD
:101090004CEA012121FA03FC10EB0C0C1ED202F1E8
:1010A000FF325FEA1C2040EBC25038BF70471CF093
:1010B0007F0F4FEA400C18BFBCF17F4F38BF70471D
:1010C000C3F12003994008BF20F00100BCF17F4F1D
:1010D00038BF7047A0F1C04000F069BA4FEA3C0049
:1010E000000A40EBC25028BF1CF0FF0F4FEA400C33
:1010F000E6D018BFBCF17F4F38BF7047EAE79CEAE3
:10110000026F05D010EA5C0F08BF00F00040704786
:1011100010B500F006FA00BF64FBBE3E401058BF99
:10112000C0F14040491058BFC1F140418142EFF346
:10113000008070474FF47F0C1CEAD0121EBF1CEADF
:10114000D11392EA0C0F93EA0C0F00F0858090EA1D
:10115000010F48BF42F4807240F4000C41F40000DB
:101160002CF07F4120F07F4000B58142A2EB0302CA
:101170000FF2081CACEB504EC0F100009EF800E0EE
:101180004FEA4E0E00FB0EFC38BF49004FEA2C1C04
:1011900002F5FA020CFB0EF34FEACE1E4FEA112CB9
:1011A0004FEAC1210EEB635E42EB22420EFB0CFCC8
:1011B0004FEA1C5300FB03114FEA112C4FEA013197
:1011C0000EFB0CFC4FEADC4C00FB0C11C14228BFAB
:1011D00009184CEB03335DF804EB10EB410143EBD2
:1011E000C250B2F57C0F38BF704729D512F0F00F0E
:1011F0001CBF00F1C04000F00040704700818283B6
:101200008485868788898B8C8D8E8F919293959615
:1012100097999A9C9D9FA0A2A3A5A7A8AAACAEB09F
:10122000B2B3B5B7B9BCBEC0C2C5C7C9CCCED1D4A4
:10123000D7D9DCDFE2E6E9ECF0F3F7FAFE000000D4
:101240004FEA400C0CF1807CBCF17E4F28BF704708
:10125000B0F1C04000F0ABB990EA010F0CEAD11335
:1012600048BF42F48072624538BF634507D213F429
:101270007F0F16D080EA010000F00040704710B5E3
:1012800000F04FF9097EFC3E00F005B880EA01004D
:1012900000F00040704780EA010000F0004000F0DC
:1012A00086B912F47F0F04BF0248704780EA01003C
:1012B00000F07DB90000C07F50EA010C00F11380FE
:1012C0001CF5000F58BFBCF5000F01D488427047D1
:1012D00007D710F5000F58BF11F5000F15D488423D
:1012E0007047894270471CF5000F04D5BCF5000F0C
:1012F000F7D5814270474FF0807C1CEB400F38BF20
:101300001CEB410F01D28142704710B500F009F982
:10131000922449004FF000504FF08051FFF7FEBE7D
:10132000C10DD1F19E0206DB4FEA002343F00043DA
:1013300023FA02F07047004207D54FEA4001B1F1AD
:10134000FE4F02D24FF00000704710B500F0E9F8F0
:1013500049922480002070476FEA20007047000007
:1013600010F0004148BF4042B0FA80F310FA03F297
:10137000C3F19D030BD051EAC35101EB1220530678
:1013800038BF704700F1010008BF20F0010070472E
:10139000B0FA80F310FA03F2C3F19D030AD0D90525
:1013A00001EB1220530638BF704700F1010008BF5F
:1013B00020F001007047000050EA010C00F113809A
:1013C0001CF5000F58BFBCF5000F01D488427047D0
:1013D00007D710F5000F58BF11F5000F15D488423C
:1013E0007047894270471CF5000F04D5BCF5000F0B
:1013F000F7D5814270474FF0807C1CEB400F38BF1F
:101400001CEB410F01D28142704710B500F089F802
:10141000922449004FF000504FF08051FFF77EBEFC
:101420004FF47F0C1CEAD0121EBF1CEAD11392EAC3
:101430000C0F93EA0C0F00F0478090EA010F48BFB1
:1014400042F480724FF0004C4CEA00204CEA01213B
:1014500002EB0302A0FB0113A2F50002002918BF52
:1014600043F001035B0028BF4FEA330342EB224203
:101470005FEA132C4CEBC2502EBFBCEB436FB2F5AE
:101480007C0F70474FEA036CBCF1004F08BF20F09F
:101490000100B2F57C0F38BF70470BD582F0FF0218
:1014A00012F5803FC8BF704700F1C040D8BF00F0C0
:1014B0000040704700F5000C5FEA4C0C48BF7047D5
:1014C000B0F1C04000F073B890EA010F0CEAD113FC
:1014D00048BF42F48072624538BF634504D280EA57
:1014E000010000F00040704710B500F01AF800BF8E
:1014F0008900013E00F007B800F009B85FEA410C2E
:101500005FEA1C6C08D080EA010000F050B85FEA86
:10151000400C5FEA1C6CF6D14FF00040A0F5800053
:1015200070470EF1020E2EF0030E5EF8044B2442BB
:1015300004D44FEA4102B2F17F4F11D84FEA400381
:10154000B3F17F4F0CD80ED14FEAD07CB2F17F4F70
:101550000CEB4C0C0CF1020C08BF4CEBD17C04E002
:101560004FF0080C01E04FEAD17C0CEB4C0324FA5D
:1015700003F404F00704B4F1040C06D20EEB840C5F
:10158000BDE810404CF0010C6047DFE80CF00708A4
:1015900002024FF00040A0F5800010BD0846420056
:1015A00018BFD2F1807288BF00F0004010BDFF214B
:1015B00041EAD050C005704751EA000C00F1138099
:1015C0001CF5000F58BFBCF5000F01D481427047D5
:1015D00007D711F5000F58BF10F5000F15D4814241
:1015E0007047894270471CF5000F04D5BCF5000F09
:1015F000F7D5884270474FF0807C1CEB410F38BF15
:101600001CEB400F01D28842704780EA010081EA5A
:10161000000180EA0100FFF7F8BE000090EA010F28
:1016200048BF81F000413FF51EAD421A04D882F058
:101630000042A0EB020011444FEAD0524FF07F4C21
:101640001CEA410FA2EBD15318BF9CEA026F4AD0AB
:101650004FF0004C4CEA00204CEA012121FA03FC37
:10166000B0EB0C0C0FD412F0FE0F36D05FEA4C003A
:101670001DD5001240EBC25038BF70471CF03F0F21
:1016800018BF70470BE0A2F101025FEA1C2040EB9B
:10169000C25038BF70471CF07F0F18BF7047C3F1AE
:1016A0002003994014BF401E20F0010070478008BD
:1016B0004FEA122308BF7047B0FA80FCA2EB0C027D
:1016C000CCF1280C60FA0CF093EA122F04BF00EB67
:1016D000C25070474FEAC3707047130A5FEADC10CC
:1016E00008BF7047F6E79CEA026F04D010EA5C0F6F
:1016F00008BF0020704710B5FFF713FF40DFF63E2C
:1017000081F000407047000028170008000000200A
:1017100024000000280100084C17000824000020C5
:101720009C060000440100080000000000000000CA
:10173000000000000000000000A24A0400000000B9
:0C17400000000000010203040607080975
:040000050800018965
:00000001FF
