:020000040800F2
:10000000680600208901000891010008930100089A
:100010009501000897010008990100080000000000
:100020000000000000000000000000009B0100082C
:100030009D010008000000009F010008A1010008C8
:10004000A3010008A3010008A3010008A301000800
:10005000A3010008A3010008A3010008A3010008F0
:10006000A3010008A3010008A3010008A3010008E0
:10007000A3010008A3010008A3010008A3010008D0
:10008000A3010008A3010008A3010008A3010008C0
:10009000A3010008A3010008A3010008A3010008B0
:1000A000A3010008A3010008A3010008A3010008A0
:1000B000A3010008A3010008A3010008A301000890
:1000C000A3010008A3010008A3010008A301000880
:1000D000A3010008A3010008A3010008A301000870
:1000E000A3010008A3010008A301000800F002F822
:1000F00000F03AF80AA090E8000C82448344AAF188
:100100000107DA4501D100F02FF8AFF2090EBAE885
:100110000F0013F0010F18BFFB1A43F0010318473B
:100120000C0400002C040000103A24BF78C878C1E9
:10013000FAD8520724BF30C830C144BF04680C60ED
:10014000704700000023002400250026103A28BF35
:1001500078C1FBD8520728BF30C148BF0B60704739
:100160001FB51FBD10B510BD00F031F81146FFF7E7
:10017000F7FF00F0A7F900F04FF803B4FFF7F2FF24
:1001800003BC00F057F800000948804709480047C1
:10019000FEE7FEE7FEE7FEE7FEE7FEE7FEE7FEE737
:1001A000FEE7FEE704480549054A064B7047000094
:1001B00065040008ED0000086800002068060020C3
:1001C000680200206802002070477047704775463B
:1001D00000F02CF8AE4605006946534620F00700B3
:1001E000854618B020B5FFF7DDFFBDE820404FF091
:1001F00000064FF000074FF000084FF0000B21F011
:100200000701AC46ACE8C009ACE8C009ACE8C009DD
:10021000ACE8C0098D46704710B50446AFF30080C6
:100220002046BDE81040FFF7A8BF00000048704717
:100230000800002001491820ABBEFEE7260002009E
:10024000704700001B48C06940F004001949C861AC
:100250001948006820F08060174908600846006867
:1002600040F0006008600846006820F080400860A8
:100270000846006840F0004008601048008840F0E0
:1002800003000E4908800846008840F4407008804A
:100290000A481038008840F00200084910390880E8
:1002A00006481838008840F00100044918390880D1
:1002B0007047000000100240000C01401808004088
:1002C00070B52A4804882A48007830BB274814387B
:1002D000008800F0010058B94FF4B470604325491C
:1002E00090FBF1F5284600F009F92349086039E050
:1002F00001201F49087000201C4914390880A4F50A
:1003000080304FF4B47148431A4990FBF1F5284608
:1003100000F0F4F81849086024E014481438008804
:1003200000F0010068B9A4F580304FF4B47148437F
:10033000104990FBF1F5284600F0E0F80E490860FE
:1003400010E000200A4908700849143908804FF469
:10035000B4706043074990FBF1F5284600F0CEF8F1
:10036000054908600448006870BD0000240800408A
:1003700004000020ECCA01000000002010B500F0CD
:1003800001F810BD0CB500200190009033480068C2
:1003900040F480303149086000BF3048006800F404
:1003A000003000900198401C0190009818B9019805
:1003B000B0F5A06FF1D12948006800F4003010B109
:1003C0000120009001E0002000900098012843D116
:1003D0002348006840F01000214908600846006882
:1003E00020F0030008600846006840F00200086042
:1003F0001A484068194948600846406848600846FD
:10040000406840F4806048600846406820F47C10F2
:1004100048600846406840F4E810486008460068B4
:1004200040F08070086000BF0C48006800F0007069
:100430000028F9D00948406820F0030007494860C7
:100440000846406840F00200486000BF034840682A
:1004500000F00C000828F9D10CBD0000001002408B
:100460000020024010B51348006840F00100114917
:10047000086008464068104908400E494860084630
:1004800000680E4908400B4908600846006820F4DF
:10049000802008600846406820F4FE0048604FF461
:1004A0001F008860FFF76AFF4FF000600449086092
:1004B00010BD0000001002400000FFF8FFFFF6FE34
:1004C00008ED00E00B48806940F00D0009498861A3
:1004D0000846C06940F00100C8610846C06940F0A4
:1004E0000400C861FFF7AEFE03E0FFF7E9FE024932
:1004F0000860FAE7001002400000002010F0004100
:1005000048BF4042B0FA80F310FA03F2C3F19D03F2
:100510000BD051EAC35101EB1220530638BF70478C
:1005200000F1010008BF20F0010070474C050008F1
:100530000000002008000000280100085405000801
:1005400008000020600600004401000800000000D0
:0405500000000000A7
:040000050800018965
:00000001FF
