:020000040800F2
:100000008006002089010008910100089301000882
:100010009501000897010008990100080000000000
:100020000000000000000000000000009B0100082C
:100030009D010008000000009F010008A1010008C8
:10004000A3010008A3010008A3010008A301000800
:10005000A3010008A3010008A3010008A3010008F0
:10006000A3010008A3010008A3010008A3010008E0
:10007000A3010008A3010008A3010008A3010008D0
:10008000A3010008A3010008A3010008A3010008C0
:10009000A3010008A3010008A3010008450200080D
:1000A000A3010008A3010008A3010008A3010008A0
:1000B000A3010008A3010008A3010008A301000890
:1000C000A3010008A3010008A3010008A301000880
:1000D000A3010008A3010008A3010008A301000870
:1000E000A3010008A3010008A301000800F002F822
:1000F00000F03AF80AA090E8000C82448344AAF188
:100100000107DA4501D100F02FF8AFF2090EBAE885
:100110000F0013F0010F18BFFB1A43F0010318473B
:10012000DC0B0000FC0B0000103A24BF78C878C13B
:10013000FAD8520724BF30C830C144BF04680C60ED
:10014000704700000023002400250026103A28BF35
:1001500078C1FBD8520728BF30C148BF0B60704739
:100160001FB51FBD10B510BD00F031F81146FFF7E7
:10017000F7FF00F0F1FA00F04FF803B4FFF7F2FFD9
:1001800003BC00F057F800000948804709480047C1
:10019000FEE7FEE7FEE7FEE7FEE7FEE7FEE7FEE737
:1001A000FEE7FEE704480549054A064B7047000094
:1001B000F9060008ED0000088000002080060020FD
:1001C000800200208002002070477047704775460B
:1001D00000F02CF8AE4605006946534620F00700B3
:1001E000854618B020B5FFF7DDFFBDE820404FF091
:1001F00000064FF000074FF000084FF0000B21F011
:100200000701AC46ACE8C009ACE8C009ACE8C009DD
:10021000ACE8C0098D46704710B50446AFF30080C6
:100220002046BDE81040FFF7A8BF00000048704717
:100230002000002001491820ABBEFEE72600020086
:100240007047000010B533480088334908603348D0
:10025000007858BB2F481438008800F0010068B9B6
:1002600009684FF4B47201FB02F000F0D9FB0446B8
:100270002B4900F0F3FA2B49086042E0012027499E
:100280000870002023491439088023490968A1F522
:1002900080314FF4B47201FB02F000F0C1FB044660
:1002A0001F4900F0DBFA1F4908602AE0194814389A
:1002B000008800F0010080B917490968A1F5803174
:1002C0004FF4B47201FB02F000F0AAFB044614499B
:1002D00000F0C4FA1349086013E000200F490870C9
:1002E0000C49143908800C4909684FF4B47201FBB9
:1002F00002F000F095FB0446094900F0AFFA094905
:1003000008600948006840F0400007490860054857
:10031000006810BD240800400000002008000020F4
:100320000076E547040000201404014010B51F4882
:10033000006840F002001D4908601D48406840F414
:1003400080601B4948600846006840F480300860BF
:1003500000BF1748006800F400300028F9D01448A6
:10036000406840F48030124948600846406840F4D4
:10037000E01048600846006840F08070086000BFE8
:100380000B48006800F000700028F9D00848406869
:1003900040F002000649486000BF0548406800F090
:1003A00008000028F9D000F055F910BD00200240E7
:1003B000001002401C48006820F080601A49086064
:1003C0000846006840F0006008600846006820F0B9
:1003D000804008600846006840F00040086013480C
:1003E000008840F00300114908800846008840F466
:1003F000407008800D481038008840F002000B491A
:100400001039088009480830008840F480500749B6
:100410000831088005481838008840F00100034979
:100420001839088070470000000C0140180800408F
:1004300072B61D48C06840F480711B48C1601B48FB
:10044000006840F04000194908601848083000680A
:1004500040F04000154908310860081D006840F070
:100460004000091D0860172000280DDB00BF00BFF9
:1004700000F01F02012191404209920002F1E022A6
:10048000C2F8001100BF00BF00BF1720002807DB23
:1004900000F01F0201219140054A430942F8231050
:1004A00000BF62B670470000000001400004014038
:1004B00000E200E02DE9F05F04462948006820F0E2
:1004C0004000274908600846006840F0A000086026
:1004D0002448006844F62061B0FBF1F0401E490654
:1004E00088852048006844F62061B0FBF1FA504648
:1004F00000F0AEFA81461C49204600F0AFF9834671
:10050000494600F0B9FA07461648006844F62061EB
:10051000B0FBF1F0A0F10109484600F099FA8046DD
:10052000394600F075FB06464FF07E5100F070FB37
:100530000546284600F054FA4FF0804108870846E7
:10054000008B40F4F04008830846008C40F0100017
:1005500008840846008840F001000880BDE8F09F4C
:10056000000801400C0000200000C84210B500F057
:1005700001F810BD0CB500200190009033480068D0
:1005800040F480303149086000BF3048006800F412
:10059000003000900198401C0190009818B9019813
:1005A000B0F5A06FF1D12948006800F4003010B117
:1005B0000120009001E0002000900098012843D124
:1005C0002348006840F01000214908600846006890
:1005D00020F0030008600846006840F00200086050
:1005E0001A4840681949486008464068486008460B
:1005F000406840F4806048600846406820F47C1001
:1006000048600846406840F4E810486008460068C2
:1006100040F08070086000BF0C48006800F0007077
:100620000028F9D00948406820F0030007494860D5
:100630000846406840F00200486000BF0348406838
:1006400000F00C000828F9D10CBD00000010024099
:100650000020024010B5002100200022214B5B68E1
:1006600003F00C0121B1042906D0082928D107E0A4
:100670001D4B1E4C236027E01B4B1C4C236023E0CA
:10068000184B5B6803F47010164B5B6803F4803200
:10069000022303EB904022B9154B4343134C2360D4
:1006A0000DE0104B5B6803F4003323B1104B434360
:1006B0000E4C236003E00C4B43430C4C236003E0DF
:1006C000094B0A4C236000BF00BF064B5B68C3F3B5
:1006D0000313084CE15C054B1B68CB40034C2360C3
:1006E00010BD00000010024000127A000C00002033
:1006F00000093D001000002010B51348006840F0CC
:1007000001001149086008464068104908400E4938
:100710004860084600680E4908400B4908600846D2
:10072000006820F4802008600846406820F4FE003D
:1007300048604FF41F008860FFF718FF4FF000601B
:100740000449086010BD0000001002400000FFF8DE
:10075000FFFFF6FE08ED00E00D48806940F00D0057
:100760000B4988610846C06940F00100C86108462D
:10077000C06940F00400C861FFF7D8FDFFF758FEDC
:10078000FFF718FE0348FFF795FE00BFFEE70000E5
:10079000001002400000204190EA010F48BF81F0A4
:1007A000004100F13C82421A3CBF801A89184FEA8E
:1007B000D0524FF07F4C1CEA410FA2EBD15318BF2F
:1007C0009CEA026F00F03B804FF0004C4CEA0020A6
:1007D0004CEA012121FA03FC10EB0C0C1ED202F1B1
:1007E000FF325FEA1C2040EBC25038BF70471CF05C
:1007F0007F0F4FEA400C18BFBCF17F4F38BF7047E6
:10080000C3F12003994008BF20F00100BCF17F4FE5
:1008100038BF7047A0F1C04000F0F5B94FEA3C0086
:10082000000A40EBC25028BF1CF0FF0F4FEA400CFB
:10083000E6D018BFBCF17F4F38BF7047EAE79CEAAB
:10084000026F05D010EA5C0F08BF00F0004070474F
:1008500010B500F092F900BF64FBBE3E4FF47F0C70
:100860001CEAD0121EBF1CEAD11392EA0C0F93EAC5
:100870000C0F00F0858090EA010F48BF42F48072AF
:1008800040F4000C41F400002CF07F4120F07F4048
:1008900000B58142A2EB03020FF2081CACEB504EF4
:1008A000C0F100009EF800E04FEA4E0E00FB0EFC87
:1008B00038BF49004FEA2C1C02F5FA020CFB0EF37C
:1008C0004FEACE1E4FEA112C4FEAC1210EEB635EB8
:1008D00042EB22420EFB0CFC4FEA1C5300FB0311BF
:1008E0004FEA112C4FEA01310EFB0CFC4FEADC4CB5
:1008F00000FB0C11C14228BF09184CEB03335DF813
:1009000004EB10EB410143EBC250B2F57C0F38BF52
:10091000704729D512F0F00F1CBF00F1C04000F065
:1009200000407047008182838485868788898B8C0C
:100930008D8E8F919293959697999A9C9D9FA0A248
:10094000A3A5A7A8AAACAEB0B2B3B5B7B9BCBEC098
:10095000C2C5C7C9CCCED1D4D7D9DCDFE2E6E9EC39
:10096000F0F3F7FAFE0000004FEA400C0CF1807C37
:10097000BCF17E4F28BF7047B0F1C04000F043B9D2
:1009800090EA010F0CEAD11348BF42F4807262452D
:1009900038BF634507D213F47F0F16D080EA0100F9
:1009A00000F00040704710B500F0E7F8097EFC3E0B
:1009B00000F005B880EA010000F00040704780EACE
:1009C000010000F0004000F01EB912F47F0F04BFD8
:1009D0000248704780EA010000F015B90000C07FAE
:1009E000C10DD1F19E0206DB4FEA002343F0004324
:1009F00023FA02F07047004207D54FEA4001B1F1F7
:100A0000FE4F02D24FF00000704710B500F0B5F86D
:100A100049922480002070476FEA20007047000050
:100A200010F0004148BF4042B0FA80F310FA03F2E0
:100A3000C3F19D030BD051EAC35101EB12205306C1
:100A400038BF704700F1010008BF20F00100704777
:100A5000B0FA80F310FA03F2C3F19D030AD0D9056E
:100A600001EB1220530638BF704700F1010008BFA8
:100A700020F00100704700004FF47F0C1CEAD012F8
:100A80001EBF1CEAD11392EA0C0F93EA0C0F00F080
:100A9000478090EA010F48BF42F480724FF0004C4B
:100AA0004CEA00204CEA012102EB0302A0FB0113F7
:100AB000A2F50002002918BF43F001035B0028BF24
:100AC0004FEA330342EB22425FEA132C4CEBC25055
:100AD0002EBFBCEB436FB2F57C0F70474FEA036C3F
:100AE000BCF1004F08BF20F00100B2F57C0F38BF09
:100AF00070470BD582F0FF0212F5803FC8BF7047E8
:100B000000F1C040D8BF00F00040704700F5000C75
:100B10005FEA4C0C48BF7047B0F1C04000F073B8BA
:100B200090EA010F0CEAD11348BF42F4807262458B
:100B300038BF634504D280EA010000F000407047EE
:100B400010B500F01AF800BF8900013E00F007B8A8
:100B500000F009B85FEA410C5FEA1C6C08D080EA3B
:100B6000010000F050B85FEA400C5FEA1C6CF6D15F
:100B70004FF00040A0F5800070470EF1020E2EF0FD
:100B8000030E5EF8044B244204D44FEA4102B2F152
:100B90007F4F11D84FEA4003B3F17F4F0CD80ED1ED
:100BA0004FEAD07CB2F17F4F0CEB4C0C0CF1020CF5
:100BB00008BF4CEBD17C04E04FF0080C01E04FEA99
:100BC000D17C0CEB4C0324FA03F404F00704B4F1D9
:100BD000040C06D20EEB840CBDE810404CF0010C66
:100BE0006047DFE80CF0070802024FF00040A0F574
:100BF000800010BD0846420018BFD2F1807288BF45
:100C000000F0004010BDFF2141EAD050C005704700
:100C100090EA010F48BF81F000413FF5C4AD421A90
:100C200004D882F00042A0EB020011444FEAD052F7
:100C30004FF07F4C1CEA410FA2EBD15318BF9CEA46
:100C4000026F4AD04FF0004C4CEA00204CEA0121E0
:100C500021FA03FCB0EB0C0C0FD412F0FE0F36D0CF
:100C60005FEA4C001DD5001240EBC25038BF704700
:100C70001CF03F0F18BF70470BE0A2F101025FEAC2
:100C80001C2040EBC25038BF70471CF07F0F18BFCC
:100C90007047C3F12003994014BF401E20F00100AB
:100CA000704780084FEA122308BF7047B0FA80FCF3
:100CB000A2EB0C02CCF1280C60FA0CF093EA122F94
:100CC00004BF00EBC25070474FEAC3707047130A6D
:100CD0005FEADC1008BF7047F6E79CEA026F04D0B9
:100CE00010EA5C0F08BF0020704710B5FFF745FF02
:100CF00040DFF63E81F00040704700001C0D000808
:100D00000000002020000000280100083C0D000821
:100D100020000020600600004401000800000000E0
:100D2000000000000000000000A24A0400000000D3
:0C0D30000000000001020304060708098F
:040000050800018965
:00000001FF
